:020000040800F2
:100000000050002035510008954D00089D4D000816
:10001000A54D0008AD4D0008B54D000800000000DA
:10002000000000000000000000000000BD4D0008BE
:10003000C94D000800000000D54D0008E14D000842
:100040007D5100087D5100087D5100087D51000858
:100050007D5100087D5100087D5100087D51000848
:100060007D5100087D5100087D5100087D51000838
:100070007D5100087D5100087D5100087D51000828
:100080007D5100087D5100087D5100087D51000818
:100090007D5100087D5100087D5100087D51000808
:1000A0007D5100087D5100087D5100087D510008F8
:1000B000ED4D00087D5100087D5100087D5100087C
:1000C0007D5100087D5100087D5100087D510008D8
:1000D0007D510008014E00087D5100087D51000847
:1000E000154E00087D5100087D51000800000000F9
:1000F0000000000000000000000000000000000000
:0C01000000000000000000005FF808F1A3
:10010C0080F0004002E000BF81F0004142001FBFC0
:10011C005FEA410392EA030F7FEA226C7FEA236CC9
:10012C006AD04FEA1262D2EB1363C1BFD2184140BE
:10013C0048404140B8BF5B42192B88BF704710F054
:10014C00004F40F4000020F07F4018BF404211F0F7
:10015C00004F41F4000121F07F4118BF494292EA5F
:10016C00030F3FD0A2F1010241FA03FC10EB0C008B
:10017C00C3F1200301FA03F100F0004302D5494218
:10018C0060EB4000B0F5000F13D3B0F1807F06D3C5
:10019C0040084FEA310102F10102FE2A51D2B1F1BD
:1001AC00004F40EBC25008BF20F0010040EA0300B2
:1001BC007047490040EB0000013A28BFB0F5000F32
:1001CC00EDD2B0FA80FCACF1080CB2EB0C0200FAE8
:1001DC000CF0AABF00EBC25052421843BCBFD04037
:1001EC001843704792F0000F81F4000106BF80F4B1
:1001FC0000000132013BB5E74FEA41037FEA226C74
:10020C0018BF7FEA236C21D092EA030F04D092F03E
:10021C00000F08BF0846704790EA010F1CBF002072
:10022C00704712F07F4F04D1400028BF40F00040CF
:10023C00704712F100723CBF00F50000704700F0EF
:10024C00004343F0FE4040F4000070477FEA226216
:10025C0016BF08467FEA23630146420206BF5FEAE7
:10026C00412390EA010F40F4800070474FF00003E7
:10027C0004E000BF10F0004348BF40425FEA000CAE
:10028C0008BF704743F0964301464FF000001CE056
:10029C0050EA010208BF70474FF000030AE000BFAC
:1002AC0050EA010208BF704711F0004302D54042EA
:1002BC0061EB41015FEA010C02BF8446014600205C
:1002CC0043F0B64308BFA3F18053A3F50003BCFA77
:1002DC008CF2083AA3EBC25310DB01FA02FC634424
:1002EC0000FA02FCC2F12002BCF1004F20FA02F22B
:1002FC0043EB020008BF20F00100704702F120021E
:10030C0001FA02FCC2F1200250EA4C0021FA02F27E
:10031C0043EB020008BF20EADC7070474FF0FF0C83
:10032C001CEAD0521EBF1CEAD15392EA0C0F93EA7E
:10033C000C0F6FD01A4480EA010C400218BF5FEA20
:10034C0041211ED04FF0006343EA501043EA511193
:10035C00A0FB01310CF00040B1F5000F3EBF49008D
:10036C0041EAD3715B0040EA010062F17F02FD2A91
:10037C001DD8B3F1004F40EBC25008BF20F0010074
:10038C00704790F0000F0CF0004C08BF49024CEA8B
:10039C00502040EA51207F3AC2BFD2F1FF0340EA1D
:1003AC00C250704740F400004FF00003013A5DDC8E
:1003BC0012F1190FDCBF00F000407047C2F10002CF
:1003CC00410021FA02F1C2F1200200FA02FC5FEABC
:1003DC00310040F1000053EA4C0308BF20EADC7006
:1003EC00704792F0000F00F0004C02BF400010F478
:1003FC00000F013AF9D040EA0C0093F0000F01F025
:10040C00004C02BF490011F4000F013BF9D041EA46
:10041C000C018FE70CEAD15392EA0C0F18BF93EA48
:10042C000C0F0AD030F0004C18BF31F0004CD8D172
:10043C0080EA010000F00040704790F0000F17BFF9
:10044C0090F0004F084691F0000F91F0004F14D03F
:10045C0092EA0C0F01D142020FD193EA0C0F03D197
:10046C004B0218BF084608D180EA010000F000409A
:10047C0040F0FE4040F40000704740F0FE4040F475
:10048C00400070474FF0FF0C1CEAD0521EBF1CEA14
:10049C00D15392EA0C0F93EA0C0F69D0A2EB030232
:1004AC0080EA010C49024FEA402037D04FF08053CC
:1004BC0043EA111143EA10130CF000408B4238BF91
:1004CC005B0042F17D024FF4000C8B4224BF5B1A9F
:1004DC0040EA0C00B3EB510F24BFA3EB510340EAED
:1004EC005C00B3EB910F24BFA3EB910340EA9C009B
:1004FC00B3EBD10F24BFA3EBD10340EADC001B010B
:10050C0018BF5FEA1C1CE0D1FD2A3FF650AF8B42AE
:10051C0040EBC25008BF20F0010070470CF0004CBB
:10052C004CEA50207F32C2BFD2F1FF0340EAC250E6
:10053C00704740F400004FF00003013A37E792F0A7
:10054C00000F00F0004C02BF400010F4000F013A05
:10055C00F9D040EA0C0093F0000F01F0004C02BF00
:10056C00490011F4000F013BF9D041EA0C0195E769
:10057C000CEAD15392EA0C0F08D142027FF47DAF02
:10058C0093EA0C0F7FF470AF084676E793EA0C0FF2
:10059C0004D14B023FF44CAF08466EE730F0004CF0
:1005AC0018BF31F0004CCAD130F000427FF45CAF80
:1005BC0031F000437FF43CAF5FE700BF4FF0FF3CEE
:1005CC0006E000BF4FF0010C02E000BF4FF0010C41
:1005DC004DF804CD4FEA40024FEA41037FEA226C0A
:1005EC0018BF7FEA236C11D001B052EA530C18BF2C
:1005FC0090EA010F58BFB2EB030088BFC81738BF91
:10060C006FEAE17018BF40F0010070477FEA226C7E
:10061C0002D15FEA402C05D17FEA236CE4D15FEA7A
:10062C00412CE1D05DF8040B704700BF84460846AE
:10063C006146FFE70FB5FFF7C9FF002848BF10F16F
:10064C00000F0FBD4DF808EDFFF7F4FF0CBF0120B4
:10065C0000205DF808FB00BF4DF808EDFFF7EAFF3E
:10066C0034BF012000205DF808FB00BF4DF808EDF9
:10067C00FFF7E0FF94BF012000205DF808FB00BFEE
:10068C004DF808EDFFF7D2FF94BF012000205DF874
:10069C0008FB00BF4DF808EDFFF7C8FF34BF012081
:1006AC0000205DF808FB00BF4FEA40024FEA41030F
:1006BC007FEA226C02D15FEA402C08D17FEA236CDE
:1006CC0002D15FEA412C02D14FF0000070474FF08D
:1006DC000100704742000ED2B2F1FE4F0BD34FF027
:1006EC009E03B3EB126209D44FEA002343F000439C
:1006FC0023FA02F070474FF00000704712F1610FBF
:10070C0001D1420202D14FF0FF3070474FF0000090
:10071C00704700BF034613F8012B002AFBD1181AAF
:10072C00013870470348044B834202D0034B03B19A
:10073C00184770475C0000205C000020000000009F
:10074C000548064B1B1AD90F01EBA301491002D027
:10075C00034B03B1184770475C0000205C0000207D
:10076C000000000010B5064C237843B9FFF7DAFF00
:10077C00044B13B10448AFF300800123237010BD68
:10078C005C000020000000009462000808B5054BD6
:10079C001BB105490548AFF30080BDE80840FFF7E1
:1007AC00CFBF00BF00000000600000209462000872
:1007BC0080B400AF00BFBD4680BC704780B586B02A
:1007CC0000AF78600023FB7500233B610023BB6006
:1007DC000023FB607B68002B01D10123BEE07B680A
:1007EC009B68002B7B689B6A002B09D17B680022DD
:1007FC00DA627B68002283F82420786804F042FBDC
:10080C00786800F0F1FB0346FB757B689B6A03F08C
:10081C001003002B40F09980FB7D002B40F095805D
:10082C007B689B6A23F4885323F0020343F0020293
:10083C007B689A627B685A687B68DB691A437B68C1
:10084C001B7B5B001343BA681343BB607B689B68DC
:10085C00B3F5807F03D07B689B68012B02D14FF4EA
:10086C00807300E000233A6913433B617B681B7D76
:10087C00012B19D17B681B7B002B09D17B689B69F1
:10088C00013B5A033B69134343F400633B610BE0A8
:10089C007B689B6A43F020027B689A627B68DB6A08
:1008AC0043F001027B68DA627B681B685B6823F4A7
:1008BC0069417B681B683A690A435A607B681B680C
:1008CC009A68284B13407A681268B9680B43936096
:1008DC007B689B68B3F5807F03D07B689B68012B9A
:1008EC0004D17B681B69013B1B05FB607B681B68A3
:1008FC00DB6A23F470017B681B68FA680A43DA62CE
:10090C007B681B689A68184B1340BA689A420BD1E3
:10091C007B680022DA627B689B6A23F0030343F056
:10092C0001027B689A6218E07B689B6A23F01203D1
:10093C0043F010027B689A627B68DB6A43F0010229
:10094C007B68DA620123FB7507E07B689B6A43F0E6
:10095C0010027B689A620123FB75FB7D18461837E1
:10096C00BD4680BDFDF7E1FFFE0E1FFF80B584B0D4
:10097C0000AF78600023FB737B6893F82430012B65
:10098C0001D1022398E07B68012283F82420786847
:10099C0000F0D0FA0346FB73FB7B002B40F0878002
:1009AC007B689B6A23F4407323F0010343F4807249
:1009BC007B689A627B681B68414A934205D1414B24
:1009CC005B6803F47023002B15D17B689B6A23F4BE
:1009DC0080127B689A627B681B685B6803F4806397
:1009EC00002B26D07B689B6A23F4405343F480523F
:1009FC007B689A621DE07B689B6A43F480127B687B
:100A0C009A627B681B682F4A934204D07B681B68F0
:100A1C002B4A93420DD12B4B5B6803F48063002B64
:100A2C0007D07B689B6A23F4405343F480527B6865
:100A3C009A627B689B6A03F48053002B06D07B6818
:100A4C00DB6A23F006027B68DA6202E07B68002234
:100A5C00DA627B68002283F824207B681B686FF0C5
:100A6C0002021A607B681B689B6803F46023B3F571
:100A7C00602F13D17B681B68114A934205D1114B2F
:100A8C005B6803F47023002B08D17B681B689A68A1
:100A9C007B681B6842F4A0029A600CE07B681B68C0
:100AAC009A687B681B6842F480129A6003E07B684A
:100ABC00002283F82420FB7B18461037BD4680BDEE
:100ACC00002801400024014080B584B000AF78605C
:100ADC000023FB737B6893F82430012B01D1022394
:100AEC001AE07B68012283F82420786800F07CFAF5
:100AFC000346FB73FB7B002B09D17B689B6A23F4B9
:100B0C00885323F0010343F001027B689A627B68EF
:100B1C00002283F82420FB7B18461037BD4680BD8D
:100B2C0090B587B000AF7860396000237B610023FB
:100B3C00FB6000233B6100F0F1FA78617B681B6875
:100B4C009B6803F48073002B0BD07B689B6A43F08B
:100B5C0020027B689A627B68002283F824200123A0
:100B6C00D3E07B681B685B6803F48073002B31D186
:100B7C007B681B68DB6A03F47003002B2AD121E02D
:100B8C003B68B3F1FF3F1DD03B68002B07D000F052
:100B9C00C5FA02467B69D31A3A689A4212D27B682C
:100BAC001B681B6803F00203002B0BD17B689B6A4C
:100BBC0043F004027B689A627B68002283F824204D
:100BCC000323A2E07B681B681B6803F00203002B65
:100BDC00D6D070E04F4B1C68022000F093FF034608
:100BEC00B4FBF3F27B681B6819694B4B0B40002B71
:100BFC0018D17B681B68D968484B0B40002B11D16E
:100C0C007B681B681969464B0B40002B08D17B682D
:100C1C001B68D968434B0B40002B01D1142320E0F7
:100C2C0029231EE07B681B6819693D4B0B40002B88
:100C3C0006D17B681B68D9683A4B0B40002B0DD052
:100C4C007B681B681969384B0B40002B08D17B68FB
:100C5C001B68D968344B0B40002B01D1542300E0A6
:100C6C00FC2302FB03F33B6121E03B68B3F1FF3F44
:100C7C001AD03B68002B07D000F050FA02467B6973
:100C8C00D31A3A689A420FD2FB683A699A420BD946
:100C9C007B689B6A43F004027B689A627B68002243
:100CAC0083F82420032330E0FB680133FB60FB68EE
:100CBC003A699A42D9D87B681B686FF012021A60A5
:100CCC007B689B6A43F400727B689A627B681B6842
:100CDC009B6803F46023B3F5602F15D17B681B7BF5
:100CEC00002B11D17B689B6A23F480727B689A621B
:100CFC007B689B6A03F48053002B05D17B689B6A4D
:100D0C0043F001027B689A62002318461C37BD46EB
:100D1C0090BD00BF00000020244992242449920079
:100D2C0092244912922449004992240080B483B041
:100D3C0000AF78607B681B68DB6C18460C37BD46CF
:100D4C0080BC704780B485B000AF786039600023F8
:100D5C00FB730023BB607B6893F82430012B01D11B
:100D6C000223DCE07B68012283F824203B685B686B
:100D7C00062B1CD87B681B68596B3B685A6813465A
:100D8C009B001344053B1F2202FA03F3DB4319407B
:100D9C003B6818683B685A6813469B001344053B34
:100DAC0000FA03F27B681B680A435A633CE03B6819
:100DBC005B680C2B1CD87B681B68196B3B685A68EA
:100DCC0013469B001344233B1F2202FA03F3DB431D
:100DDC0019403B6818683B685A6813469B001344DB
:100DEC00233B00FA03F27B681B680A431A631BE07F
:100DFC007B681B68D96A3B685A6813469B0013448E
:100E0C00413B1F2202FA03F3DB4319403B6818688D
:100E1C003B685A6813469B001344413B00FA03F2AB
:100E2C007B681B680A43DA623B681B68092B1CD978
:100E3C007B681B68D9683B681A6813465B001344CF
:100E4C001E3B072202FA03F3DB4319403B68986808
:100E5C003B681A6813465B0013441E3B00FA03F20E
:100E6C007B681B680A43DA6019E07B681B681969A8
:100E7C003B681A6813465B001344072202FA03F31B
:100E8C00DB4319403B6898683B681A6813465B0063
:100E9C00134400FA03F27B681B680A431A613B682F
:100EAC001B68102B03D03B681B68112B32D17B685D
:100EBC001B681D4A934225D17B681B689B6803F411
:100ECC000003002B26D17B681B689A687B681B6823
:100EDC0042F400029A603B681B68102B1AD1134B2A
:100EEC001B68134AA2FB03239A0C13469B00134462
:100EFC005B00BB6002E0BB68013BBB60BB68002BC6
:100F0C00F9D107E07B689B6A43F020027B689A6208
:100F1C000123FB737B68002283F82420FB7B18469B
:100F2C001437BD4680BC70470024014000000020EF
:100F3C0083DE1B4380B584B000AF78600023FB6078
:100F4C000023BB607B681B689B6803F00103012BCB
:100F5C0040D07B681B689A687B681B6842F0010272
:100F6C009A601F4B1B681F4AA2FB03239B0CBB60A0
:100F7C0002E0BB68013BBB60BB68002BF9D100F001
:100F8C00CDF8F8601FE000F0C9F80246FB68D31AF0
:100F9C00022B18D97B681B689B6803F00103012B9B
:100FAC0011D07B689B6A43F010027B689A627B6865
:100FBC00DB6A43F001027B68DA627B68002283F80B
:100FCC002420012307E07B681B689B6803F0010366
:100FDC00012BD8D1002318461037BD4680BD00BF69
:100FEC000000002083DE1B4380B584B000AF786026
:100FFC000023FB607B681B689B6803F00103012BDB
:10100C002ED17B681B689A687B681B6822F00102F2
:10101C009A6000F083F8F8601BE000F07FF802465D
:10102C00FB68D31A022B14D97B681B689B6803F0EE
:10103C000103012B0DD17B689B6A43F010027B6886
:10104C009A627B68DB6A43F001027B68DA620123F7
:10105C0007E07B681B689B6803F00103012BDCD065
:10106C00002318461037BD4680BD000080B500AF88
:10107C00084B1B68074A43F010031360032001F070
:10108C002BF90F2000F008F803F0CAFE00231846D5
:10109C0080BD00BF0020024080B582B000AF7860F8
:1010AC00124B1A68124B1B7819464FF47A73B3FB28
:1010BC00F1F3B2FBF3F3184601F043F90346002BAE
:1010CC0001D001230EE07B680F2B0AD8002279682F
:1010DC004FF0FF3001F00BF9064A7B6813600023D8
:1010EC0000E0012318460837BD4680BD00000020F3
:1010FC00080000200400002080B400AF054B1B78D2
:10110C001A46054B1B681344034A136000BFBD46C7
:10111C0080BC7047080000207800002080B400AF2D
:10112C00024B1B681846BD4680BC704778000020F7
:10113C0080B584B000AF7860FFF7F0FFB8607B68D3
:10114C00FB60FB68B3F1FF3F05D00A4B1B781A46D6
:10115C00FB681344FB6000BFFFF7E0FF0246BB686F
:10116C00D31AFA689A42F7D800BF00BF1037BD46B1
:10117C0080BD00BF0800002080B586B000AF78604D
:10118C007B68002B01D1012372E27B681B6803F0A2
:10119C000103002B00F08780924B5B6803F00C037B
:1011AC00042B0CD08F4B5B6803F00C03082B12D173
:1011BC008C4B5B6803F48033B3F5803F0BD1894BC8
:1011CC001B6803F40033002B6CD07B685B68002B2E
:1011DC0068D101234CE27B685B68B3F5803F06D194
:1011EC00804B1B687F4A43F4803313602EE07B688E
:1011FC005B68002B0CD17B4B1B687A4A23F4803341
:10120C001360784B1B68774A23F4802313601DE02E
:10121C007B685B68B3F5A02F0CD1724B1B68714ACD
:10122C0043F4802313606F4B1B686E4A43F4803386
:10123C0013600BE06B4B1B686A4A23F4803313601A
:10124C00684B1B68674A23F4802313607B685B68D8
:10125C00002B13D0FFF762FF386108E0FFF75EFF49
:10126C0002463B69D31A642B01D9032300E25D4B80
:10127C001B6803F40033002BF0D014E0FFF74EFF93
:10128C00386108E0FFF74AFF02463B69D31A642B2A
:10129C0001D90323ECE1534B1B6803F40033002BFF
:1012AC00F0D100E000BF7B681B6803F00203002B49
:1012BC0063D04C4B5B6803F00C03002B0BD0494BF9
:1012CC005B6803F00C03082B1CD1464B5B6803F4E2
:1012DC008033002B16D1434B1B6803F00203002B09
:1012EC0005D07B681B69012B01D00123C0E13D4B6C
:1012FC001B6823F0F8027B685B69DB0039491343F8
:10130C000B603AE07B681B69002B20D0364B012226
:10131C001A60FFF703FF386108E0FFF7FFFE024693
:10132C003B69D31A022B01D90323A1E12D4B1B6876
:10133C0003F00203002BF0D02A4B1B6823F0F802B9
:10134C007B685B69DB00274913430B6015E0264B78
:10135C0000221A60FFF7E2FE386108E0FFF7DEFEBC
:10136C0002463B69D31A022B01D9032380E11D4BA2
:10137C001B6803F00203002BF0D17B681B6803F0A1
:10138C000803002B3AD07B689B69002B19D0174BB4
:10139C0001221A60FFF7C2FE386108E0FFF7BEFEBB
:1013AC0002463B69D31A022B01D9032360E10D4B92
:1013BC005B6A03F00203002BF0D0012000F0CEFAA0
:1013CC001CE00A4B00221A60FFF7A8FE38610FE000
:1013DC00FFF7A4FE02463B69D31A022B08D903235C
:1013EC0046E100BF0010024000004242800442422D
:1013FC00924B5B6A03F00203002BE9D17B681B68FC
:10140C0003F00403002B00F0A6800023FB758B4B2C
:10141C00DB6903F08053002B0DD1884BDB69874AC5
:10142C0043F08053D361854BDB6903F08053BB6081
:10143C00BB680123FB75824B1B6803F48073002B84
:10144C0018D17F4B1B687E4A43F480731360FFF7FF
:10145C0065FE386108E0FFF761FE02463B69D31A6E
:10146C00642B01D9032303E1754B1B6803F48073D0
:10147C00002BF0D07B68DB68012B06D16F4B1B6A0D
:10148C006E4A43F0010313622DE07B68DB68002B8E
:10149C000CD16A4B1B6A694A23F001031362674B38
:1014AC001B6A664A23F0040313621CE07B68DB684A
:1014BC00052B0CD1614B1B6A604A43F00403136289
:1014CC005E4B1B6A5D4A43F0010313620BE05B4BFE
:1014DC001B6A5A4A23F001031362584B1B6A574A82
:1014EC0023F0040313627B68DB68002B15D0FFF735
:1014FC0015FE38610AE0FFF711FE02463B69D31A6C
:10150C0041F28832934201D90323B1E04B4B1B6A61
:10151C0003F00203002BEED014E0FFF7FFFD38615F
:10152C000AE0FFF7FBFD02463B69D31A41F2883211
:10153C00934201D903239BE0404B1B6A03F0020347
:10154C00002BEED1FB7D012B05D13C4BDB693B4ADB
:10155C0023F08053D3617B68DB69002B00F087801C
:10156C00364B5B6803F00C03082B61D07B68DB699E
:10157C00022B46D1334B00221A60FFF7CFFD3861A6
:10158C0008E0FFF7CBFD02463B69D31A022B01D9C9
:10159C0003236DE0294B1B6803F00073002BF0D183
:1015AC007B681B6AB3F5803F08D1244B5B6823F43E
:1015BC0000327B689B68214913434B601F4B5B686F
:1015CC0023F474127B68196A7B685B6A0B431B49B2
:1015DC0013434B601B4B01221A60FFF79FFD3861D0
:1015EC0008E0FFF79BFD02463B69D31A022B01D999
:1015FC0003233DE0114B1B6803F00073002BF0D06C
:10160C0035E0104B00221A60FFF788FD386108E0C6
:10161C00FFF784FD02463B69D31A022B01D9032341
:10162C0026E0064B1B6803F00073002BF0D11EE084
:10163C007B68DB69012B07D1012319E00010024004
:10164C0000700040600042420B4B5B68FB60FB6823
:10165C0003F480327B681B6A9A4206D1FB6803F460
:10166C0070127B685B6A9A4201D0012300E0002370
:10167C0018461837BD4680BD0010024080B584B0B6
:10168C0000AF786039607B68002B01D10123D0E07A
:10169C006A4B1B6803F007033A689A4210D9674BF0
:1016AC001B6823F0070265493B6813430B60634BCF
:1016BC001B6803F007033A689A4201D00123B8E093
:1016CC007B681B6803F00203002B20D07B681B682F
:1016DC0003F00403002B05D0594B5B68584A43F4C4
:1016EC00E06353607B681B6803F00803002B05D094
:1016FC00534B5B68524A43F460535360504B5B68E6
:10170C0023F0F0027B689B684D4913434B607B6868
:10171C001B6803F00103002B40D07B685B68012B36
:10172C0007D1474B1B6803F40033002B15D1012361
:10173C007FE07B685B68022B07D1414B1B6803F091
:10174C000073002B09D1012373E03D4B1B6803F0A0
:10175C000203002B01D101236BE0394B5B6823F0B2
:10176C0003027B685B68364913434B60FFF7D6FC7A
:10177C00F8600AE0FFF7D2FC0246FB68D31A41F28C
:10178C008832934201D9032353E02D4B5B6803F05D
:10179C000C027B685B689B009A42EBD1274B1B6861
:1017AC0003F007033A689A4210D2244B1B6823F0CB
:1017BC00070222493B6813430B60204B1B6803F064
:1017CC0007033A689A4201D0012332E07B681B6818
:1017DC0003F00403002B08D0194B5B6823F4E06280
:1017EC007B68DB68164913434B607B681B6803F00E
:1017FC000803002B09D0124B5B6823F460527B6802
:10180C001B69DB000E4913434B6000F021F80246C4
:10181C000B4B5B681B0903F00F030A49CB5C22FAE4
:10182C0003F3094A1360094B1B681846FFF734FC95
:10183C00002318461037BD4680BD00BF0020024073
:10184C0000100240E86500080000002004000020A1
:10185C0080B487B000AF0023FB600023BB60002383
:10186C007B6100237B6000233B611E4B5B68FB604C
:10187C00FB6803F00C03042B02D0082B03D027E0E9
:10188C00194B3B6127E0FB689B0C03F00F03174AD5
:10189C00D35C7B60FB6803F48033002B10D0114BBE
:1018AC005B685B0C03F00103114AD35CBB607B6883
:1018BC000D4A03FB02F2BB68B2FBF3F37B6104E05D
:1018CC007B680C4A02FB03F37B617B693B6102E0A2
:1018DC00054B3B6100BF3B6918461C37BD4680BCBD
:1018EC00704700BF0010024000127A00006600082A
:1018FC001066000800093D0080B400AF024B1B6865
:10190C001846BD4680BC70470000002080B500AF73
:10191C00FFF7F2FF0246054B5B681B0A03F0070357
:10192C000349CB5C22FA03F3184680BD0010024039
:10193C00F865000880B500AFFFF7DEFF0246054BE7
:10194C005B68DB0A03F007030349CB5C22FA03F361
:10195C00184680BD00100240F865000880B485B0C0
:10196C0000AF78600A4B1B680A4AA2FB03235B0A90
:10197C007A6802FB03F3FB6000BFFB685A1EFA6037
:10198C00002BF9D100BF00BF1437BD4680BC704797
:10199C0000000020D34D621080B586B000AF786097
:1019AC0000233B610023FB607B681B6803F0010391
:1019BC00002B7DD00023FB754F4BDB6903F080536C
:1019CC00002B0DD14C4BDB694B4A43F08053D36158
:1019DC00494BDB6903F08053BB60BB680123FB758B
:1019EC00464B1B6803F48073002B18D1434B1B68C8
:1019FC00424A43F480731360FFF790FB386108E0B0
:101A0C00FFF78CFB02463B69D31A642B01D90323E5
:101A1C006DE03A4B1B6803F48073002BF0D0364B0F
:101A2C001B6A03F44073FB60FB68002B2ED07B68B1
:101A3C005B6803F44073FA689A4227D02E4B1B6AFA
:101A4C0023F44073FB602E4B01221A602C4B0022B6
:101A5C001A60294AFB681362FB6803F00103002B30
:101A6C0014D0FFF75BFB38610AE0FFF757FB024627
:101A7C003B69D31A41F28832934201D9032336E0F1
:101A8C001D4B1B6A03F00203002BEED01A4B1B6A92
:101A9C0023F440727B685B68174913430B62FB7D30
:101AAC00012B05D1144BDB69134A23F08053D3610E
:101ABC007B681B6803F00203002B08D00E4B5B689D
:101ACC0023F440427B689B680B4913434B607B6853
:101ADC001B6803F01003002B08D0074B5B6823F442
:101AEC0080027B68DB68044913434B600023184673
:101AFC001837BD4680BD00BF00100240007000408A
:101B0C004004424280B588B000AF786000237B610E
:101B1C000023FB6100233B610023FB600023BB61BE
:101B2C007B68102B0AD07B68102B00F28A807B68B4
:101B3C00012B45D07B68022B75D082E0464B5B684D
:101B4C00FB60454B1B6803F08073002B7BD0FB685C
:101B5C009B0C03F00F03414AD35C3B61FB6803F41D
:101B6C008033002B15D03C4B5B685B0C03F00103FE
:101B7C003B4AD35C7B61FB6803F48033002B0DD0B4
:101B8C00384A7B69B2FBF3F23B6902FB03F3FB615E
:101B9C0004E03B69344A02FB03F3FB612E4B5B68A8
:101BAC0003F48003B3F5800F02D1FB69BB614AE0FB
:101BBC00FB695B002D4AA2FB03235B08BB6142E07F
:101BCC00254B1B6AFB60FB6803F44073B3F5807F05
:101BDC0008D1FB6803F00203002B03D04FF4004341
:101BEC00BB611FE0FB6803F44073B3F5007F09D1C0
:101BFC00194B5B6A03F00203002B03D049F64043F8
:101C0C00BB610FE0FB6803F44073B3F5407F1CD15C
:101C1C00114B1B6803F40033002B16D04FF22443F6
:101C2C00BB6112E011E0FFF785FE02460A4B5B68D0
:101C3C009B0B03F0030301335B00B2FBF3F3BB61BB
:101C4C0004E000BF02E000BF00E000BFBB69184623
:101C5C002037BD4680BD00BF00100240146600084E
:101C6C002466000800127A0000093D00ABAAAAAA5B
:101C7C0080B48BB000AF7860396000237B620023A6
:101C8C003B6269E101227B6A02FA03F3FB613B6868
:101C9C001B68FA691340BB61BA69FB699A4240F050
:101CAC0058813B685B689A4A93425ED0984A93424B
:101CBC0075D8984A934258D0964A93426FD8964A10
:101CCC00934252D0944A934269D8944A93424CD04E
:101CDC00924A934263D8924A934246D0904A934296
:101CEC005DD8122B2AD8122B59D801A252F823F006
:101CFC00771D0008511D0008631D0008A51D000874
:101D0C00AB1D0008AB1D0008AB1D0008AB1D000887
:101D1C00AB1D0008AB1D0008AB1D0008AB1D000877
:101D2C00AB1D0008AB1D0008AB1D0008AB1D000867
:101D3C00AB1D0008591D00086D1D0008794A93421F
:101D4C0013D02CE03B68DB683B6229E03B68DB6826
:101D5C0004333B6224E03B68DB6808333B621FE0E2
:101D6C003B68DB680C333B621AE03B689B68002BDA
:101D7C0002D104233B6213E03B689B68012B05D125
:101D8C0008233B627B68FA691A6109E008233B620D
:101D9C007B68FA695A6103E000233B6200E000BFF4
:101DAC00BB69FF2B01D87B6801E07B6804337B6146
:101DBC00BB69FF2B02D87B6A9B0002E07B6A083B65
:101DCC009B003B617B691A680F213B6901FA03F3A5
:101DDC00DB431A40396A3B6901FA03F31A437B6906
:101DEC001A603B685B6803F08053002B00F0B180F5
:101DFC004D4B9B694C4A43F0010393614A4B9B69E1
:101E0C0003F00103BB60BB68484A7B6A9B08023342
:101E1C0052F82330FB607B6A03F003039B000F2214
:101E2C0002FA03F3DB43FA681340FB607B68404A19
:101E3C00934213D07B683F4A93420DD07B683E4A55
:101E4C00934207D07B683D4A934201D1032306E0BD
:101E5C00042304E0022302E0012300E000237A6A59
:101E6C0002F0030292009340FA681343FB602F497F
:101E7C007B6A9B080233FA6841F823203B685B6855
:101E8C0003F48013002B06D02D4B9A682C49BB69A8
:101E9C0013438B6006E02A4B9A68BB69DB432849E5
:101EAC0013408B603B685B6803F40013002B06D077
:101EBC00234BDA682249BB691343CB6006E0204B05
:101ECC00DA68BB69DB431E491340CB603B685B6837
:101EDC0003F40033002B06D0194B5A681849BB6920
:101EEC0013434B6006E0164B5A68BB69DB4314493D
:101EFC0013404B603B685B6803F48033002B21D0AC
:101F0C000F4B1A680E49BB6913430B6021E000BFED
:101F1C0000003210000031100000221000002110CF
:101F2C0000001210000011100010024000000140CF
:101F3C0000080140000C0140001001400014014059
:101F4C00000401400B4B1A68BB69DB430949134081
:101F5C000B607B6A01337B623B681A687B6A22FAEE
:101F6C0003F3002B7FF48EAE00BF00BF2C37BD46B1
:101F7C0080BC70470004014080B483B000AF78602F
:101F8C000B467B8013467B707B78002B03D07A88C2
:101F9C007B681A6103E07B881A047B681A6100BFB6
:101FAC000C37BD4680BC704780B582B000AF03468D
:101FBC00FB80084B5A69FB881340002B06D0054A5E
:101FCC00FB885361FB88184602F09CFD00BF083764
:101FDC00BD4680BD0004014080B485B000AF786080
:101FEC000023FB737B6893F82130DBB2022B08D003
:101FFC007B6804229A637B68002283F820200123EB
:10200C0020E07B681B681A687B681B6822F00E0254
:10201C001A607B681B681A687B681B6822F00102D7
:10202C001A607B681A6C7B68DB6B012101FA02F287
:10203C005A607B68012283F821207B68002283F898
:10204C002020FB7B18461437BD4680BC704700002F
:10205C0080B584B000AF78600023FB737B6893F885
:10206C002130DBB2022B05D07B6804229A6301235A
:10207C00FB7351E07B681B681A687B681B6822F055
:10208C000E021A607B681B681A687B681B6822F05A
:10209C0001021A607B681B68224A934229D07B6834
:1020AC001B68214A934222D07B681B681F4A9342CB
:1020BC001AD07B681B681E4A934212D07B681B683F
:1020CC001C4A93420AD07B681B681B4A934202D17C
:1020DC004FF480130EE04FF080730BE04FF480331D
:1020EC0008E04FF4805305E04FF4807302E01023B6
:1020FC0000E00123114A53607B68012283F8212000
:10210C007B68002283F820207B685B6B002B03D05C
:10211C007B685B6B78689847FB7B18461037BD462D
:10212C0080BD00BF080002401C000240300002408D
:10213C0044000240580002406C0002400000024083
:10214C0080B485B000AF78607B6803F00703FB6058
:10215C000C4BDB68BB60BA684FF6FF031340BB60E7
:10216C00FB681A02BB68134343F0BF6343F40033AC
:10217C00BB60044ABB68D36000BF1437BD4680BC4B
:10218C00704700BF00ED00E080B400AF044BDB688B
:10219C001B0A03F007031846BD4680BC704700BFFE
:1021AC0000ED00E080B483B000AF0346FB7197F9FB
:1021BC000730002B0BDBFB7903F01F02064997F964
:1021CC0007305B09012000FA02F241F8232000BF1E
:1021DC000C37BD4680BC704700E100E080B483B092
:1021EC0000AF03463960FB7197F90730002B0ADB0F
:1021FC003B68DAB20C4997F907301201D2B20B44A2
:10220C0083F800230AE03B68DAB20849FB7903F053
:10221C000F03043B1201D2B20B441A7600BF0C37E9
:10222C00BD4680BC704700BF00E100E000ED00E05F
:10223C0080B489B000AFF860B9607A60FB6803F0D5
:10224C000703FB61FB69C3F10703042B28BF0423BD
:10225C00BB61FB690433062B02D9FB69033B00E02D
:10226C0000237B614FF0FF32BB6902FA03F3DA43C0
:10227C00BB681A407B699A404FF0FF317B6901FAC9
:10228C0003F3D9437B680B40134318462437BD46F0
:10229C0080BC704780B582B000AF78607B68013B32
:1022AC00B3F1807F01D301230FE00A4A7B68013B25
:1022BC0053600F214FF0FF30FFF790FF054B0022CA
:1022CC009A60044B07221A60002318460837BD4653
:1022DC0080BD00BF10E000E080B582B000AF786038
:1022EC007868FFF72DFF00BF0837BD4680BD80B56D
:1022FC0086B000AF0346B9607A60FB7300237B6144
:10230C00FFF742FF78617A68B9687869FFF790FF48
:10231C00024697F90F3011461846FFF75FFF00BFD2
:10232C001837BD4680BD80B582B000AF0346FB7147
:10233C0097F907301846FFF735FF00BF0837BD4641
:10234C0080BD80B582B000AF78607868FFF7A2FFDF
:10235C00034618460837BD4680BD000080B584B0E2
:10236C0000AF78607B68002B01D101232BE17B68E7
:10237C0093F83D30DBB2002B06D17B68002283F84A
:10238C003C20786802F0BAFD7B68242283F83D205B
:10239C007B681B681A687B681B6822F001021A6054
:1023AC007B681B681A687B681B6842F400421A60E1
:1023BC007B681B681A687B681B6822F400421A60F1
:1023CC00FFF7A4FAF8607B685B68814A934207D8F0
:1023DC00FB68804A934294BF01230023DBB206E0E2
:1023EC00FB687D4A934294BF01230023DBB2002B90
:1023FC0001D00123E7E0FB68784AA2FB03239B0C86
:10240C00BB607B681B685B6823F03F017B681B68C3
:10241C00BA680A435A607B681B681B6A23F03F0149
:10242C007B685B686A4A934202D8BB68013309E057
:10243C00BB684FF4967202FB03F3694AA2FB0323B9
:10244C009B0901337A6812680B4313627B681B6823
:10245C00DB6923F44F4222F0FF027B685B685C4926
:10246C008B4219D8FB68591E7B685B685B00B1FB1B
:10247C00F3F3591C40F6FC730B40002B0AD0FB689D
:10248C00591E7B685B685B00B1FBF3F30133C3F34C
:10249C000B0351E004234FE07B689B68002B11D1A8
:1024AC00FB68581E7B6859680B465B000B44B0FBFD
:1024BC00F3F30133C3F30B03002B0CBF01230023F5
:1024CC00DBB212E0FB68581E7B6859680B469B0018
:1024DC000B4499000B44B0FBF3F30133C3F30B0330
:1024EC00002B0CBF01230023DBB2002B01D00123F6
:1024FC0022E07B689B68002B0ED1FB68581E7B6822
:10250C0059680B465B000B44B0FBF3F30133C3F388
:10251C000B0343F400430FE0FB68581E7B685968BB
:10252C000B469B000B4499000B44B0FBF3F30133B7
:10253C00C3F30B0343F44043796809681343CB613D
:10254C007B681B681B6823F0C0017B68DA697B68B9
:10255C001B6A1A437B681B680A431A607B681B68FA
:10256C009B6823F4034323F0FF037A6811697A68AC
:10257C00D26811437A6812680B4393607B681B68BE
:10258C00DB6823F0FF017B685A697B689B691A43FF
:10259C007B681B680A43DA607B681B681A687B6877
:1025AC001B6842F001021A607B6800221A647B6887
:1025BC00202283F83D207B6800221A637B6800226E
:1025CC0083F83E20002318461037BD4680BD00BF5F
:1025DC00A08601007F841E00FF083D0083DE1B43A4
:1025EC00D34D621080B582B000AF78607B68002B51
:1025FC0001D1012341E07B6893F83D30DBB2002B25
:10260C0006D17B68002283F83C20786802F0B4FC89
:10261C007B68022283F83D207B681A687B68043350
:10262C001946104600F0CEFB7B68012283F8462049
:10263C007B68012283F83E207B68012283F83F20CF
:10264C007B68012283F840207B68012283F84120BB
:10265C007B68012283F842207B68012283F84320A7
:10266C007B68012283F844207B68012283F8452093
:10267C007B68012283F83D20002318460837BD46AD
:10268C0080BD80B582B000AF78607B68002B01D133
:10269C00012341E07B6893F83D30DBB2002B06D17F
:1026AC007B68002283F83C20786800F039F87B685E
:1026BC00022283F83D207B681A687B680433194634
:1026CC00104600F07FFB7B68012283F846207B6874
:1026DC00012283F83E207B68012283F83F207B682F
:1026EC00012283F840207B68012283F841207B681B
:1026FC00012283F842207B68012283F843207B6807
:10270C00012283F844207B68012283F845207B68F2
:10271C00012283F83D20002318460837BD4680BDB2
:10272C0080B483B000AF786000BF0C37BD4680BC6E
:10273C007047000080B584B000AF786039603B68AA
:10274C00002B09D17B6893F83E30DBB2012B14BF10
:10275C0001230023DBB222E03B68042B09D17B6808
:10276C0093F83F30DBB2012B14BF01230023DBB203
:10277C0015E03B68082B09D17B6893F84030DBB23D
:10278C00012B14BF01230023DBB208E07B6893F814
:10279C004130DBB2012B14BF01230023DBB2002B31
:1027AC0001D001235EE03B68002B04D17B68022240
:1027BC0083F83E2013E03B68042B04D17B68022293
:1027CC0083F83F200BE03B68082B04D17B68022286
:1027DC0083F8402003E07B68022283F841207B6869
:1027EC001B6801223968184600F078FD7B681B686D
:1027FC001E4A934207D17B681B685A6C7B681B6826
:10280C0042F400425A647B681B68184A93420ED00B
:10281C007B681B68B3F1804F09D07B681B68144A36
:10282C00934204D07B681B68124A934211D17B6897
:10283C001B689B6803F00703FB60FB68062B10D03A
:10284C007B681B681A687B681B6842F001021A607F
:10285C0007E07B681B681A687B681B6842F0010202
:10286C001A60002318461037BD4680BD002C01406D
:10287C00000400400008004080B584B000AF7860D0
:10288C007B681B68DB68FB607B681B681B69BB6033
:10289C00BB6803F00203002B20D0FB6803F002039B
:1028AC00002B1BD07B681B686FF002021A617B68DF
:1028BC0001221A777B681B689B6903F00303002BCA
:1028CC0003D0786800F063FA05E0786800F056FAF7
:1028DC00786800F065FA7B6800221A77BB6803F011
:1028EC000403002B20D0FB6803F00403002B1BD047
:1028FC007B681B686FF004021A617B6802221A77EE
:10290C007B681B689B6903F44073002B03D07868C9
:10291C0000F03DFA05E0786800F030FA786800F0D5
:10292C003FFA7B6800221A77BB6803F00803002B80
:10293C0020D0FB6803F00803002B1BD07B681B68BE
:10294C006FF008021A617B6804221A777B681B6897
:10295C00DB6903F00303002B03D0786800F017FA4F
:10296C0005E0786800F00AFA786800F019FA7B68DC
:10297C0000221A77BB6803F01003002B20D0FB68F1
:10298C0003F01003002B1BD07B681B686FF0100248
:10299C001A617B6808221A777B681B68DB6903F471
:1029AC004073002B03D0786800F0F1F905E07868EB
:1029BC0000F0E4F9786800F0F3F97B6800221A77EC
:1029CC00BB6803F00103002B0CD0FB6803F0010380
:1029DC00002B07D07B681B686FF001021A617868C6
:1029EC0000F0C3F9BB6803F08003002B0CD0FB682C
:1029FC0003F08003002B07D07B681B686FF080020C
:102A0C001A61786800F0F5FCBB6803F04003002BFA
:102A1C000CD0FB6803F04003002B07D07B681B68CD
:102A2C006FF040021A61786800F0C3F9BB6803F0DC
:102A3C002003002B0CD0FB6803F02003002B07D0E5
:102A4C007B681B686FF020021A61786800F0C8FC84
:102A5C0000BF1037BD4680BD80B586B000AFF860B2
:102A6C00B9607A600023FB75FB6893F83C30012B4E
:102A7C0001D10223AEE0FB68012283F83C207B6885
:102A8C000C2B00F29F8001A252F823F0CD2A0008F3
:102A9C00D12B0008D12B0008D12B00080D2B0008DE
:102AAC00D12B0008D12B0008D12B00084F2B00088C
:102ABC00D12B0008D12B0008D12B00088F2B00083C
:102ACC00FB681B68B968184600F0EAF9FB681B68DC
:102ADC009A69FB681B6842F008029A61FB681B68E4
:102AEC009A69FB681B6822F004029A61FB681B68F8
:102AFC009969BB681A69FB681B680A439A6164E0B0
:102B0C00FB681B68B968184600F030FAFB681B6854
:102B1C009A69FB681B6842F400629A61FB681B6847
:102B2C009A69FB681B6822F480629A61FB681B68D7
:102B3C009969BB681B691A02FB681B680A439A6196
:102B4C0043E0FB681B68B968184600F079FAFB682B
:102B5C001B68DA69FB681B6842F00802DA61FB68E3
:102B6C001B68DA69FB681B6822F00402DA61FB68F7
:102B7C001B68D969BB681A69FB681B680A43DA6170
:102B8C0023E0FB681B68B968184600F0C3FAFB68C1
:102B9C001B68DA69FB681B6842F40062DA61FB6847
:102BAC001B68DA69FB681B6822F48062DA61FB68D7
:102BBC001B68D969BB681B691A02FB681B680A434E
:102BCC00DA6102E00123FB7500BFFB68002283F889
:102BDC003C20FB7D18461837BD4680BD80B584B0BF
:102BEC0000AF786039600023FB737B6893F83C304E
:102BFC00012B01D10223B4E07B68012283F83C2035
:102C0C007B68022283F83D207B681B689B68BB6055
:102C1C00BB6823F07703BB60BB6823F47F43BB60C6
:102C2C007B681B68BA689A603B681B68B3F5005FE9
:102C3C003ED0B3F5005F00F28780B3F5805F00F003
:102C4C008680B3F5805F7FD8702B1AD0702B7BD821
:102C5C00602B50D0602B77D8502B3CD0502B73D896
:102C6C00402B58D0402B6FD8302B64D0302B6BD8E6
:102C7C00202B60D0202B67D8002B5CD0102B5AD087
:102C8C0062E07B6818683B6899683B685A683B68E7
:102C9C00DB6800F004FB7B681B689B68BB60BB684F
:102CAC0043F07703BB607B681B68BA689A604FE09F
:102CBC007B6818683B6899683B685A683B68DB68B6
:102CCC0000F0EDFA7B681B689A687B681B6842F41D
:102CDC0080429A603CE07B6818683B6859683B68A6
:102CEC00DB681A4600F064FA7B681B6850211846B2
:102CFC0000F0BBFA2CE07B6818683B6859683B68AD
:102D0C00DB681A4600F082FA7B681B686021184663
:102D1C0000F0ABFA1CE07B6818683B6859683B68AC
:102D2C00DB681A4600F044FA7B681B6840211846A1
:102D3C0000F09BFA0CE07B681A683B681B6819462C
:102D4C00104600F092FA03E00123FB7300E000BF91
:102D5C007B68012283F83D207B68002283F83C20AD
:102D6C00FB7B18461037BD4680BD80B483B000AFE6
:102D7C00786000BF0C37BD4680BC704780B483B010
:102D8C0000AF786000BF0C37BD4680BC704780B484
:102D9C0083B000AF786000BF0C37BD4680BC704775
:102DAC0080B483B000AF786000BF0C37BD4680BCE8
:102DBC00704780B483B000AF786000BF0C37BD465D
:102DCC0080BC704780B485B000AF786039607B6898
:102DDC001B68FB607B682F4A93420BD07B68B3F176
:102DEC00804F07D07B682C4A934203D07B682B4AD8
:102DFC00934208D1FB6823F07003FB603B685B686F
:102E0C00FA681343FB607B68224A93420BD07B68C1
:102E1C00B3F1804F07D07B681F4A934203D07B6885
:102E2C001E4A934208D1FB6823F44073FB603B6855
:102E3C00DB68FA681343FB60FB6823F080023B6895
:102E4C005B691343FB607B68FA681A603B689A689D
:102E5C007B68DA623B681A687B689A627B680D4A09
:102E6C00934203D13B681A697B681A637B68012221
:102E7C005A617B681B6903F00103002B05D07B684A
:102E8C001B6923F001027B681A6100BF1437BD4631
:102E9C0080BC7047002C014000040040000800403A
:102EAC0080B487B000AF786039607B681B6A7B6147
:102EBC007B681B6A23F001027B681A627B685B6883
:102ECC003B617B689B69FB60FB6823F07003FB60D4
:102EDC00FB6823F00303FB603B681B68FA68134331
:102EEC00FB607B6923F002037B613B689B687A691A
:102EFC0013437B617B681C4A93420CD17B6923F0A2
:102F0C0008037B613B68DB687A6913437B617B69EF
:102F1C0023F004037B617B68134A934211D13B6914
:102F2C0023F480733B613B6923F400733B613B6882
:102F3C005B693A6913433B613B689B693A6913438C
:102F4C003B617B683A695A607B68FA689A613B68B6
:102F5C005A687B685A637B687A691A6200BF1C37AF
:102F6C00BD4680BC704700BF002C014080B487B0C8
:102F7C0000AF786039607B681B6A7B617B681B6A79
:102F8C0023F010027B681A627B685B683B617B688C
:102F9C009B69FB60FB6823F4E043FB60FB6823F454
:102FAC004073FB603B681B681B02FA681343FB60B1
:102FBC007B6923F020037B613B689B681B017A696A
:102FCC0013437B617B681D4A93420DD17B6923F0CF
:102FDC0080037B613B68DB681B017A6913437B616F
:102FEC007B6923F040037B617B68144A934213D1C5
:102FFC003B6923F480633B613B6923F400633B61D1
:10300C003B685B699B003A6913433B613B689B6976
:10301C009B003A6913433B617B683A695A607B6851
:10302C00FA689A613B685A687B689A637B687A692C
:10303C001A6200BF1C37BD4680BC7047002C014093
:10304C0080B487B000AF786039607B681B6A7B61A5
:10305C007B681B6A23F480727B681A627B685B68EE
:10306C003B617B68DB69FB60FB6823F07003FB60F2
:10307C00FB6823F00303FB603B681B68FA6813438F
:10308C00FB607B6923F400737B613B689B681B02CC
:10309C007A6913437B617B681D4A93420DD17B692E
:1030AC0023F400637B613B68DB681B027A69134382
:1030BC007B617B6923F480637B617B68144A934258
:1030CC0013D13B6923F480533B613B6923F40053D8
:1030DC003B613B685B691B013A6913433B613B688D
:1030EC009B691B013A6913433B617B683A695A60DF
:1030FC007B68FA68DA613B685A687B68DA637B68DC
:10310C007A691A6200BF1C37BD4680BC704700BF8D
:10311C00002C014080B487B000AF786039607B68C8
:10312C001B6A3B617B681B6A23F480527B681A62C2
:10313C007B685B687B617B68DB69FB60FB6823F405
:10314C00E043FB60FB6823F44073FB603B681B6847
:10315C001B02FA681343FB603B6923F400533B6189
:10316C003B689B681B033A6913433B617B680F4ABE
:10317C00934209D17B6923F480437B613B685B6993
:10318C009B017A6913437B617B687A695A607B681F
:10319C00FA68DA613B685A687B681A647B683A693A
:1031AC001A6200BF1C37BD4680BC7047002C014022
:1031BC0080B487B000AFF860B9607A60FB681B6AB6
:1031CC007B61FB681B6A23F00102FB681A62FB68D7
:1031DC009B693B613B6923F0F0033B617B681B01FE
:1031EC003A6913433B617B6923F00A037B617A697B
:1031FC00BB6813437B61FB683A699A61FB687A6927
:10320C001A6200BF1C37BD4680BC704780B487B0C3
:10321C0000AFF860B9607A60FB681B6A7B61FB6881
:10322C001B6A23F01002FB681A62FB689B693B6106
:10323C003B6923F470433B617B681B033A6913437E
:10324C003B617B6923F0A0037B61BB681B017A693E
:10325C0013437B61FB683A699A61FB687A691A626D
:10326C0000BF1C37BD4680BC704780B485B000AF32
:10327C00786039607B689B68FB60FB6823F07003A7
:10328C00FB603A68FB68134343F00703FB607B6801
:10329C00FA689A6000BF1437BD4680BC704780B492
:1032AC0087B000AFF860B9607A603B60FB689B68E0
:1032BC007B617B6923F47F437B613B681A027B68EB
:1032CC001A43BB6813437A6913437B61FB687A69C1
:1032DC009A6000BF1C37BD4680BC704780B487B075
:1032EC0000AFF860B9607A60BB6803F01F0301227D
:1032FC0002FA03F37B61FB681A6A7B69DB431A40B1
:10330C00FB681A62FB681A6ABB6803F01F037968D2
:10331C0001FA03F31A43FB681A6200BF1C37BD465F
:10332C0080BC704780B485B000AF786039607B6832
:10333C0093F83C30012B01D1022346E07B6801223B
:10334C0083F83C207B68022283F83D207B681B6855
:10335C005B68FB607B681B689B68BB60FB6823F049
:10336C007003FB603B681B68FA681343FB607B6867
:10337C001B68FA685A607B681B68164A93420ED029
:10338C007B681B68B3F1804F09D07B681B68124ABD
:10339C00934204D07B681B68104A93420CD1BB68E3
:1033AC0023F08003BB603B685B68BA681343BB6067
:1033BC007B681B68BA689A607B68012283F83D20A1
:1033CC007B68002283F83C20002318461437BD4646
:1033DC0080BC7047002C01400004004000080040F5
:1033EC0080B483B000AF786000BF0C37BD4680BCA2
:1033FC00704780B483B000AF786000BF0C37BD4617
:10340C0080BC704780B582B000AF78607B68002BC1
:10341C0001D1012342E07B6893F84130DBB2002BF1
:10342C0006D17B68002283F84020786801F028FEE2
:10343C007B68242283F841207B681B68DA687B68F0
:10344C001B6822F40052DA60786800F0AFFD7B68EC
:10345C001B681A697B681B6822F490421A617B68AE
:10346C001B685A697B681B6822F02A025A617B68C8
:10347C001B68DA687B681B6842F40052DA607B6870
:10348C0000225A647B68202283F841207B6820222A
:10349C0083F842207B6800225A63002318460837C1
:1034AC00BD4680BD80B58AB002AFF860B9603B60A4
:1034BC001346FB8000237B61FB6893F84130DBB241
:1034CC00202B75D1BB68002B02D0FB88002B01D1BF
:1034DC0001236EE0FB6800225A64FB68212283F80A
:1034EC004120FDF71BFE7861FB68FA889A84FB6823
:1034FC00FA88DA84FB689B68B3F5805F08D1FB68B7
:10350C001B69002B04D10023FB61BB68BB6103E08A
:10351C00BB68FB610023BB612EE03B6800937B69B9
:10352C0000228021F86800F013FB0346002B05D025
:10353C00FB68202283F8412003233AE0FB69002B2F
:10354C000BD1BB691B881A46FB681B68C2F30802C7
:10355C005A60BB690233BB6107E0FB691A78FB68F0
:10356C001B685A60FB690133FB61FB68DB8C9BB207
:10357C00013B9AB2FB68DA84FB68DB8C9BB2002BB4
:10358C00CBD13B6800937B6900224021F86800F0A6
:10359C00DFFA0346002B05D0FB68202283F841207C
:1035AC00032306E0FB68202283F84120002300E07F
:1035BC00022318462037BD4680BD80B584B000AFCD
:1035CC00F860B9601346FB80FB6893F84230DBB2BD
:1035DC00202B12D1BB68002B02D0FB88002B01D111
:1035EC0001230BE0FB6800221A63FB881A46B968BA
:1035FC00F86800F006FB034600E00223184610377B
:10360C00BD4680BD80B5BAB000AF78607B681B68E2
:10361C001B68C7F8E4307B681B68DB68C7F8E030D0
:10362C007B681B685B69C7F8DC300023C7F8D830AF
:10363C000023C7F8D430D7F8E43003F00F03C7F8F1
:10364C00D830D7F8D830002B0FD1D7F8E43003F0AE
:10365C002003002B09D0D7F8E03003F02003002B17
:10366C0003D0786800F0E3FB5BE2D7F8D830002B8E
:10367C0000F0DE80D7F8DC3003F00103002B06D11C
:10368C00D7F8E03003F49073002B00F0D180D7F81A
:10369C00E43003F00103002B0BD0D7F8E03003F437
:1036AC008073002B05D07B685B6C43F001027B6858
:1036BC005A64D7F8E43003F00403002B0BD0D7F88E
:1036CC00DC3003F00103002B05D07B685B6C43F00E
:1036DC0002027B685A64D7F8E43003F00203002B33
:1036EC000BD0D7F8DC3003F00103002B05D07B683E
:1036FC005B6C43F004027B685A64D7F8E43003F047
:10370C000803002B11D0D7F8E03003F02003002B76
:10371C0005D1D7F8DC3003F00103002B05D07B6812
:10372C005B6C43F008027B685A647B685B6C002B13
:10373C0000F0F281D7F8E43003F02003002B08D01E
:10374C00D7F8E03003F02003002B02D0786800F0AB
:10375C006EFB7B681B685B6903F04003002B14BF96
:10376C0001230023DBB2C7F8D4307B685B6C03F019
:10377C000803002B03D1D7F8D430002B4FD0786836
:10378C0000F078FA7B681B685B6903F04003002B40
:10379C0041D07B681B681433C7F89C30D7F89C3039
:1037AC0053E8003FC7F89830D7F8983023F040031F
:1037BC00C7F8D0307B681B681433D7F8D020C7F813
:1037CC00A820C7F8A430D7F8A410D7F8A82041E84F
:1037DC000023C7F8A030D7F8A030002BD9D17B68D4
:1037EC00DB6B002B13D07B68DB6B7E4A5A637B68E8
:1037FC00DB6B1846FEF72CFC0346002B16D07B68BF
:10380C00DB6B5B6B7A68D26B104698470EE078687E
:10381C0001F070FA0AE0786801F06CFA06E078685A
:10382C0001F068FA7B6800225A6475E100BF73E10D
:10383C007B681B6B012B40F04F81D7F8E43003F011
:10384C001003002B00F04881D7F8E03003F0100390
:10385C00002B00F041810023BB607B681B681B6858
:10386C00BB607B681B685B68BB60BB687B681B6864
:10387C005B6903F04003002B00F0B6807B68DB6BC8
:10388C001B685B68A7F8BE30B7F8BE30002B00F0A1
:10389C0045817B689B8DB7F8BE209A4280F03E81B3
:1038AC007B68B7F8BE20DA857B68DB6B9B69202BC5
:1038BC0000F088807B681B680C33C7F88830D7F819
:1038CC00883053E8003FC7F88430D7F8843023F4AD
:1038DC008073C7F8B8307B681B680C33D7F8B820F6
:1038EC00C7F89420C7F89030D7F89010D7F89420E8
:1038FC0041E80023C7F88C30D7F88C30002BD9D195
:10390C007B681B6814337B677B6F53E8003F3B6716
:10391C003B6F23F00103C7F8B4307B681B6814338A
:10392C00D7F8B420C7F88020FB67F96FD7F8802050
:10393C0041E80023BB67BB6F002BE1D17B681B68A0
:10394C0014333B663B6E53E8003FFB65FB6D23F085
:10395C004003C7F8B0307B681B681433D7F8B0202D
:10396C00FA66BB66B96EFA6E41E800237B667B6E25
:10397C00002BE3D17B68202283F842207B68002255
:10398C001A637B681B680C33FB64FB6C53E8003FC9
:10399C00BB64BB6C23F01003C7F8AC307B681B68AE
:1039AC000C33D7F8AC20BA657B65796DBA6D41E8FC
:1039BC0000233B653B6D002BE3D17B68DB6B18462A
:1039CC00FEF70AFB7B6802225A637B689A8D7B6840
:1039DC00DB8D9BB2D31A9BB21946786800F0ADF818
:1039EC009CE000BF453D00087B689A8D7B68DB8DB1
:1039FC009BB2D31AA7F8CE307B68DB8D9BB2002B21
:103A0C0000F08E80B7F8CE30002B00F089807B68F8
:103A1C001B680C33BB63BB6B53E8003F7B637B6B56
:103A2C0023F49073C7F8C8307B681B680C33D7F845
:103A3C00C8207A643B64396C7A6C41E80023FB63E0
:103A4C00FB6B002BE3D17B681B6814337B627B6AB6
:103A5C0053E8003F3B623B6A23F00103C7F8C430D4
:103A6C007B681B681433D7F8C4203A63FB62F96A8D
:103A7C003A6B41E80023BB62BB6A002BE3D17B6845
:103A8C00202283F842207B6800221A637B681B6823
:103A9C000C333B613B6953E8003FFB60FB6823F050
:103AAC001003C7F8C0307B681B680C33D7F8C020F4
:103ABC00FA61BB61B969FA6941E800237B617B69F2
:103ACC00002BE3D17B6802225A63B7F8CE3019463B
:103ADC00786800F032F823E0D7F8E43003F0800384
:103AEC00002B09D0D7F8E03003F08003002B03D073
:103AFC00786800F035F914E0D7F8E43003F04003AF
:103B0C00002B0ED0D7F8E03003F04003002B08D088
:103B1C00786800F074F904E000BF02E000BF00E038
:103B2C0000BFE837BD4680BD80B483B000AF78607D
:103B3C0000BF0C37BD4680BC704780B483B000AF6B
:103B4C0078600B467B8000BF0C37BD4680BC70474D
:103B5C0080B586B000AFF860B9603B601346FB716E
:103B6C003BE03B6AB3F1FF3F37D0FDF7D7FA024693
:103B7C003B68D31A3A6A9A4202D33B6A002B01D1B2
:103B8C0003233AE0FB681B68DB6803F00403002B9B
:103B9C0023D0BB68802B20D0BB68402B1DD0FB688A
:103BAC001B681B6803F00803082B16D100237B61EC
:103BBC00FB681B681B687B61FB681B685B687B612F
:103BCC007B69F86800F056F8FB6808225A64FB68B9
:103BDC00002283F8402001230FE0FB681B681A6861
:103BEC00BB681340BA689A420CBF01230023DBB2B6
:103BFC001A46FB799A42B4D0002318461837BD46B2
:103C0C0080BD80B485B000AFF860B9601346FB800E
:103C1C00FB68BA689A62FB68FA889A85FB68FA882E
:103C2C00DA85FB6800225A64FB68222283F8422062
:103C3C00FB681B69002B07D0FB681B68DA68FB6804
:103C4C001B6842F48072DA60FB681B685A69FB6877
:103C5C001B6842F001025A61FB681B68DA68FB685A
:103C6C001B6842F02002DA60002318461437BD4668
:103C7C0080BC704780B495B000AF78607B681B68DF
:103C8C000C337B637B6B53E8003F3B633B6B23F450
:103C9C009073FB647B681B680C33FA6C3A64FB63AF
:103CAC00F96B3A6C41E80023BB63BB6B002BE5D18D
:103CBC007B681B6814333B623B6A53E8003FFB6133
:103CCC00FB6923F00103BB647B681B681433BA6C7B
:103CDC00FA62BB62B96AFA6A41E800237B627B6ACA
:103CEC00002BE5D17B681B6B012B19D17B681B6802
:103CFC000C33FB60FB6853E8003FBB60BB6823F0F0
:103D0C0010037B647B681B680C337A6CBA617B6133
:103D1C007969BA6941E800233B613B69002BE5D125
:103D2C007B68202283F842207B6800221A6300BF44
:103D3C005437BD4680BC704780B584B000AF786006
:103D4C007B685B6AFB60FB680022DA85FB680022FB
:103D5C00DA84F86800F0CEFF00BF1037BD4680BD96
:103D6C0080B485B000AF78607B6893F84130DBB2EB
:103D7C00212B3ED17B689B68B3F5805F14D17B68A7
:103D8C001B69002B10D17B681B6AFB60FB681B88CE
:103D9C001A467B681B68C2F308025A607B681B6A70
:103DAC009A1C7B681A6208E07B681B6A591C7A684B
:103DBC0011621A787B681B685A607B68DB8C9BB23B
:103DCC00013B9BB27A681946D184002B0FD17B68DA
:103DDC001B68DA687B681B6822F08002DA607B68FB
:103DEC001B68DA687B681B6842F04002DA600023CB
:103DFC0000E0022318461437BD4680BC704780B5DE
:103E0C0082B000AF78607B681B68DA687B681B68DF
:103E1C0022F04002DA607B68202283F84120786827
:103E2C00FFF782FE002318460837BD4680BD80B5DB
:103E3C008CB000AF78607B6893F84230DBB2222BF9
:103E4C0040F0AE807B689B68B3F5805F17D17B68D0
:103E5C001B69002B13D10023FB627B689B6ABB623E
:103E6C007B681B685B689BB2C3F308039AB2BB6A9E
:103E7C001A807B689B6A9A1C7B689A6226E07B6836
:103E8C009B6AFB620023BB627B689B68B3F5805F17
:103E9C0007D07B689B68002B0AD17B681B69002BC1
:103EAC0006D17B681B685B68DAB2FB6A1A7008E0A3
:103EBC007B681B685B68DBB203F07F03DAB2FB6ADA
:103ECC001A707B689B6A5A1C7B689A627B68DB8DD4
:103EDC009BB2013B9BB27A681946D185002B5DD110
:103EEC007B681B68DA687B681B6822F02002DA604A
:103EFC007B681B68DA687B681B6822F48072DA6066
:103F0C007B681B685A697B681B6822F001025A6146
:103F1C007B68202283F842207B6800225A637B68EE
:103F2C001B6B012B35D17B6800221A637B681B68E5
:103F3C000C337B617B6953E8003F3B613B6923F0A9
:103F4C0010037B627B681B680C337A6A3A62FB61F4
:103F5C00F9693A6A41E80023BB61BB69002BE5D1E2
:103F6C007B681B681B6803F01003102B0AD100231D
:103F7C00FB607B681B681B68FB607B681B685B686D
:103F8C00FB60FB687B689B8D19467868FFF7D5FD55
:103F9C0002E0786800F01CFE002302E0002300E041
:103FAC00022318463037BD4680BD000080B584B072
:103FBC0000AF78607B681B681B6923F440517B68F9
:103FCC00DA687B681B680A431A617B689A687B68AD
:103FDC001B691A437B685B691343BB607B681B6876
:103FEC00DB6823F4B05323F00C037A681268B968C9
:103FFC000B43D3607B681B685B6923F440717B685F
:10400C009A697B681B680A435A617B681B682C4A57
:10401C00934203D1FDF78EFCF86002E0FDF776FCCD
:10402C00F860FA6813469B0013449A001A447B68A4
:10403C005B689B00B2FBF3F3224AA2FB03235B09F0
:10404C001901FA6813469B0013449A001A447B68C2
:10405C005B689B00B2FBF3F21A4BA3FB02035B09F8
:10406C00642000FB03F3D31A1B013233154AA2FB65
:10407C0003235B0903F0F0031944FA6813469B0011
:10408C0013449A001A447B685B689B00B2FBF3F202
:10409C000C4BA3FB02035B09642000FB03F3D31A54
:1040AC001B013233074AA2FB03235B0903F00F0207
:1040BC007B681B680A449A6000BF1037BD4680BD00
:1040CC00003801401F85EB51B0B5ADF5187D02AF3E
:1040DC00FCF7CCFF00F0F0FA00F0B8FC00F03CFB71
:1040EC0000F078FB00F0A4FB00F0EEFB00F084FC89
:1040FC0007F5057300221A605A609A60DA60C023D3
:10410C00C7F814320223C7F818320323C7F8203239
:10411C0007F505731946BF48FDF7AAFD0123C7F83B
:10412C00143207F505731946BB48FDF7A1FD0021B4
:10413C00BA48FEF7FFFA0421B848FEF7FBFA08214B
:10414C00B648FEF7F7FAB648FCF710FC0122B54961
:10415C00B548FFF732FA64231F22B449B248FFF77F
:10416C00A1F964231522B249AF48FFF79BF901F07E
:10417C0019F9002001F080F90A210A2001F0C6FA91
:10418C00AC4B012200920ECBAB4801F099FA01F036
:10419C008BF907F51673A3F5FA73A84A184611465E
:1041AC0040F2AD131A4602F061F807F164031846A9
:1041BC00FCF7B0FA03469AB207F16401C8239A4897
:1041CC00FFF770F9FCF7AAFFC7F848029448FCF710
:1041DC007BFC9348FCF7CAFB0A219148FCF7A0FC36
:1041EC008F48FCF7A3FDC7F84402D7F8443240F2DD
:1041FC00E73203FB02F2924BA3FB0213D21A5208D2
:10420C001344DB0AA7F842328E4B1B78012B40F08B
:10421C00BE808C4B00221A70002001F02DF9052174
:10422C00002001F073FA834B012200920ECB8648DA
:10423C0001F046FA854B1B78032B00F2A68001A2F5
:10424C0052F823F061420008B3420008074300080B
:10425C004B43000807F51673A3F516737C4A1C46EE
:10426C0015460FCD0FC40FCD0FC495E8070003C43E
:10427C0022800234130C23703B461846FCF74AFA92
:10428C0003469AB2394664236748FFF70BF91421A9
:10429C00002001F03BFA674B012200920ECB6D48D7
:1042AC0001F00EFA71E007F51673A3F516736A4A5E
:1042BC001C4615460FCD0FC40FCD0FC40FCD0FC428
:1042CC002B681A46228002341B0C23703B4618467E
:1042DC00FCF720FA03469AB2394664235248FFF79A
:1042EC00E1F81421002001F011FA524B0122009246
:1042FC000ECB5A4801F0E4F947E007F51673A3F525
:10430C001673574A1846114641231A4601F0AEFF60
:10431C003B461846FCF7FEF903469AB2394664232D
:10432C004148FFF7BFF81421002001F0EFF9414B91
:10433C00012200920ECB4B4801F0C2F925E007F5A3
:10434C001673A3F50573484A1C4615460FCD0FC4CA
:10435C0095E80F0007C4237007F144031846FCF7D7
:10436C00D9F903469AB207F1440164232E48FFF7AA
:10437C0099F81421002001F0C9F92E4B012200926A
:10438C000ECB3A4801F09CF900BF01F08DF8384B88
:10439C001B78012B1DD1364B00221A70002001F026
:1043AC006BF80A210A2001F0B1F9324B012200927C
:1043BC000ECB314801F084F92321192001F0A6F924
:1043CC001C4B012200920ECB2C4801F079F901F024
:1043DC006BF81E4B1B78032B3FF6F4AE01A252F880
:1043EC0023F000BF014400088D4400083F4500083D
:1043FC0091460008094B1B68B7F842225A63074BD9
:10440C001B68B7F842229A63044B1B68B7F8422228
:10441C00DA6345E100080140000C0140480100202E
:10442C007C000020DA01002090010020AC62000822
:10443C00CC620008F07A0008E46200084C630008C3
:10444C000101100009000020F0620008D8010020D2
:10445C00FC640008F862000828650008086300087E
:10446C005C65000818630008A06500082463000858
:10447C00D9010020FC7A000834630008406300086E
:10448C00D7F84832874AA2FB0312920940F6B8319A
:10449C0001FB02F29B1AC7F82C32D7F82C3240F2EF
:1044AC00DB5293420CD8D7F82C02FBF7DFFE034605
:1044BC007D491846FBF7E6FF0346C7F854320FE078
:1044CC00D7F82C32C3F53B6308331846FBF7CEFE06
:1044DC00034675491846FBF7D5FF0346C7F8543217
:1044EC007249D7F8540201F05BF9C7F82802B7F803
:1044FC0042321846FBF7BAFE0346D7F82812184684
:10450C00FBF70CFF03461846FCF7E4F80346A7F844
:10451C002632674B1B68B7F826225A63644B1B681C
:10452C00B7F826229A63624B1B68B7F82622DA6327
:10453C00B6E0D7F848325B4AA2FB0312D20941F22B
:10454C00707101FB02F29B1AC7F83C32D7F83C326F
:10455C00584AA2FB03239B09C7F83832D7F83C32E0
:10456C00544AA2FB031292094FF47A7101FB02F236
:10457C009B1AC7F83432B7F84232D7F8342202FB10
:10458C0003F34C4AA2FB03239B09A7F83232B7F87A
:10459C004222B7F83232D31AA7F830320023A7F8E8
:1045AC0052320023A7F850320023A7F84E32D7F826
:1045BC003832052B56D801A252F823F0E1450008F9
:1045CC00F945000811460008294600084146000834
:1045DC0059460008B7F84232A7F85232B7F83232CF
:1045EC00A7F850320023A7F84E323BE0B7F8303230
:1045FC00A7F85232B7F84232A7F850320023A7F886
:10460C004E322FE00023A7F85232B7F84232A7F807
:10461C005032B7F83232A7F84E3223E00023A7F815
:10462C005232B7F83032A7F85032B7F84232A7F806
:10463C004E3217E0B7F83232A7F852320023A7F8FF
:10464C005032B7F84232A7F84E320BE0B7F842328C
:10465C00A7F852320023A7F85032B7F83032A7F837
:10466C004E3200BF124B1B68B7F852225A63104BE4
:10467C001B68B7F850229A630D4B1B68B7F84E2293
:10468C00DA630DE00A4B1B6800225A63084B1B6867
:10469C0000229A63064B1B680022DA6300BF91E587
:1046AC0090E500BFF11976050080BB44CDCC0C40E1
:1046BC0048010020D34D621080B594B000AF07F1D3
:1046CC00280328220021184601F09EFD07F114034F
:1046DC0000221A605A609A60DA601A613B1D00224F
:1046EC001A605A609A60DA600223BB620123BB63D2
:1046FC001023FB6300237B6407F128031846FCF7A7
:10470C003BFD0346002B01D000F038FB0F237B61EF
:10471C000023BB610023FB6100233B6200237B620F
:10472C0007F1140300211846FCF7A8FF0346002BE1
:10473C0001D000F023FB02237B600023FB603B1DB8
:10474C001846FDF729F90346002B01D000F016FBA3
:10475C0000BF5037BD4680BD80B584B000AF3B1D57
:10476C0000221A605A609A60184B194A1A60174B4B
:10477C0000229A60154B01221A73144B00221A75F1
:10478C00124B4FF46022DA61104B00225A600F4B2F
:10479C0001221A610D48FCF711F80346002B01D0D9
:1047AC0000F0ECFA01237B600123BB600723FB6064
:1047BC003B1D19460548FCF7C5FA0346002B01D0F2
:1047CC0000F0DCFA00BF1037BD4680BD7C00002035
:1047DC000024014080B500AF124B134A1A60114BF4
:1047EC00124A5A600F4B00229A600E4B0022DA607C
:1047FC000C4B4FF480421A610A4B00225A61094B50
:10480C0000229A61074B0022DA61064B00221A62E1
:10481C000448FDF7A3FD0346002B01D000F0AEFACF
:10482C0000BF80BDAC00002000540040A0860100F9
:10483C0080B586B000AF07F1080300221A605A60F9
:10484C009A60DA603B4600221A605A601D4B4FF0AA
:10485C0080421A601B4B47225A601A4B00229A6006
:10486C00184B4FF6FF72DA60164B00221A61154B8B
:10487C0000229A611348FDF7B5FE0346002B01D0C8
:10488C0000F07CFA4FF48053BB6007F10803194623
:10489C000C48FEF7A3F90346002B01D000F06EFA8A
:1048AC0000233B6000237B603B4619460548FEF71E
:1048BC0039FD0346002B01D000F060FA00BF183719
:1048CC00BD4680BD0001002080B58EB000AF07F161
:1048DC00280300221A605A609A60DA6007F12003FC
:1048EC0000221A605A603B1D00221A605A609A60BE
:1048FC00DA601A615A619A613D4B3E4A1A603C4B30
:10490C0047225A603A4B00229A60394B40F2E73208
:10491C00DA60374B00221A61354B00229A61344819
:10492C00FDF760FE0346002B01D000F027FA4FF490
:10493C008053BB6207F1280319462D48FEF74EF948
:10494C000346002B01D000F019FA2948FDF799FE17
:10495C000346002B01D000F011FA00233B62002328
:10496C007B6207F1200319462148FEF7DBFC034666
:10497C00002B01D000F002FA60237B600023BB60A7
:10498C000023FB6000237B613B1D00221946184865
:10499C00FEF762F80346002B01D000F0EFF93B1D47
:1049AC00042219461248FEF757F80346002B01D093
:1049BC0000F0E4F93B1D082219460D48FEF74CF8AF
:1049CC000346002B01D000F0D9F93B1D0C221946EF
:1049DC000748FEF741F80346002B01D000F0CEF952
:1049EC00034800F001FB00BF3837BD4680BD00BF57
:1049FC00480100200004004080B500AF114B124A62
:104A0C001A60104B4FF4E1325A600E4B00229A6040
:104A1C000C4B0022DA600B4B00221A61094B0C2262
:104A2C005A61084B00229A61064B0022DA61054854
:104A3C00FEF7E8FC0346002B01D000F09FF900BF05
:104A4C0080BD00BF900100200038014080B588B0C7
:104A5C0000AF07F1100300221A605A609A60DA6006
:104A6C00244B9B69234A43F020039361214B9B69A0
:104A7C0003F02003FB60FB681E4B9B691D4A43F04F
:104A8C00040393611B4B9B6903F00403BB60BB687D
:104A9C00184B9B69174A43F008039361154B9B69AC
:104AAC0003F008037B607B684FF440533B61124B6F
:104ABC007B610123BB6107F1100319460F48FDF719
:104ACC00D7F880233B6101237B610323FB6107F152
:104ADC00100319460A48FDF7CBF8002200212820C4
:104AEC00FDF705FC2820FDF71EFC00BF2037BD4656
:104AFC0080BD00BF0010024000002110000C0140DE
:104B0C0000080140B0B58EB000AF0346FB80FCF747
:104B1C0005FB7863FB88B3F5805F19D1254B1B68C7
:104B2C007A6BD31AB3F5967F12D9234B1B780133CA
:104B3C00DAB2214B1A70204B1B78032B02D91E4B77
:104B4C0000221A701D4B01221A701A4A7B6B1360DB
:104B5C00FB88B3F5005F29D1194B1B687A6BD31A0C
:104B6C00B3F5967F22D9174B07F10C041D460FCDD8
:104B7C000FC40FCD0FC495E80300206004342180CE
:104B8C0002340B0C237007F10C031846FBF7C2FD23
:104B9C0003469AB207F10C0164230B48FEF782FC22
:104BAC000A4B01221A70064A7B6B136000BF383720
:104BBC00BD46B0BDDC010020D8010020090000205A
:104BCC00E0010020C065000890010020D901002000
:104BDC0080B582B000AF78607B681B68404A934216
:104BEC007AD10A2301223F493F48FEF75BFC3D4B3B
:104BFC001B78312B07D03B4B1B78772B03D0394BD1
:104C0C001B78572B06D1394B00221A70384B0122D6
:104C1C001A705CE0334B1B78322B07D0314B1B786E
:104C2C00622B03D02F4B1B78422B06D12F4B01222A
:104C3C001A702F4B01221A7049E02A4B1B78332B28
:104C4C0007D0284B1B78722B03D0264B1B78522B8A
:104C5C0006D1264B02221A70254B01221A7036E01F
:104C6C00204B1B78302B07D01E4B1B78732B03D09B
:104C7C001C4B1B78532B06D11C4B03221A701C4B5C
:104C8C0001221A7023E0174B1B786E2B0FD0154B9B
:104C9C001B784E2B0BD0134B1B78202B07D0114BB2
:104CAC001B780D2B03D00F4B1B780A2B0FD10F4BFE
:104CBC001B780133DAB20D4B1A700C4B1B78032B9B
:104CCC0002D90A4B00221A70094B01221A700122D8
:104CDC0004490548FEF771FC00BF0837BD4680BD8E
:104CEC0000380140DA01002090010020D80100209A
:104CFC000900002080B586B000AF78607B681B6827
:104D0C001B4A934230D100237B617B681B681B6874
:104D1C007B617B681B685B687B617B6900233B6103
:104D2C007B681B681B683B617B681B685B683B612D
:104D3C003B690023FB607B681B681B68FB607B681E
:104D4C001B685B68FB60FB680023BB607B681B68AF
:104D5C001B68BB607B681B685B68BB60BB6801221F
:104D6C0004490548FEF729FC00BF1837BD4680BD35
:104D7C0000380140DA0100209001002080B400AF1F
:104D8C0072B600BF00BFFDE780B400AF00BFFDE707
:104D9C0080B400AF00BFFDE780B400AF00BFFDE7FB
:104DAC0080B400AF00BFFDE780B400AF00BFFDE7EB
:104DBC0080B400AF00BFBD4680BC704780B400AF6C
:104DCC0000BFBD4680BC704780B400AF00BFBD467D
:104DDC0080BC704780B500AFFCF78EF900BF80BD7A
:104DEC0080B500AF0248FDF747FD00BF80BD00BF96
:104DFC000001002080B500AF0248FEF703FC00BFA5
:104E0C0080BD00BF9001002080B500AF4FF48050F2
:104E1C00FDF7CAF84FF40050FDF7C6F800BF80BD8F
:104E2C0080B485B000AF154B9B69144A43F0010365
:104E3C009361124B9B6903F00103BB60BB680F4B82
:104E4C00DB690E4A43F08053D3610C4BDB6903F0F2
:104E5C0080537B607B680A4B5B68FB60FB6823F0CC
:104E6C00E063FB60FB6843F00073FB60044AFB6883
:104E7C00536000BF1437BD4680BC70470010024021
:104E8C000000014080B588B000AF786007F11003D6
:104E9C0000221A605A609A60DA607B681B68144AB8
:104EAC00934221D1134B9B69124A43F400739361D3
:104EBC00104B9B6903F40073FB60FB680D4B9B6903
:104ECC000C4A43F0040393610A4B9B6903F00403FF
:104EDC00BB60BB6802233B6103237B6107F11003BA
:104EEC0019460548FCF7C4FE00BF2037BD4680BDFF
:104EFC0000240140001002400008014080B588B039
:104F0C0000AF786007F1100300221A605A609A60B3
:104F1C00DA607B681B68154A934223D1144B9B695A
:104F2C00134A43F008039361114B9B6903F0080388
:104F3C00FB60FB68C0233B6112237B610323FB6195
:104F4C0007F1100319460B48FCF792FE084BDB697E
:104F5C00074A43F40013D361054BDB6903F40013D8
:104F6C00BB60BB6800BF2037BD4680BD005400400D
:104F7C0000100240000C014080B584B000AF786096
:104F8C007B681B68B3F1804F14D1154BDB69144A55
:104F9C0043F00103D361124BDB6903F00103FB60A7
:104FAC00FB68002200211C20FDF7A1F91C20FDF755
:104FBC00BAF910E07B681B680A4A93420BD1084B84
:104FCC00DB69074A43F00203D361054BDB6903F04D
:104FDC000203BB60BB6800BF1037BD4680BD00BF7D
:104FEC00001002400004004080B588B000AF78602B
:104FFC0007F1100300221A605A609A60DA607B682D
:10500C001B681B4A93422FD11A4B9B69194A43F0D8
:10501C0004039361174B9B6903F00403FB60FB686B
:10502C00144B9B69134A43F008039361114B9B6922
:10503C0003F00803BB60BB68C0233B6102237B61A8
:10504C000323FB6107F1100319460B48FCF710FE14
:10505C0001233B6102237B610323FB6107F11003F6
:10506C0019460648FCF704FE00BF2037BD4680BD3C
:10507C00000400400010024000080140000C0140F8
:10508C0080B588B000AF786007F1100300221A6079
:10509C005A609A60DA607B681B68204A934239D167
:1050AC001F4B9B691E4A43F4804393611C4B9B69C5
:1050BC0003F48043FB60FB68194B9B69184A43F06F
:1050CC0004039361164B9B6903F00403BB60BB683C
:1050DC004FF400733B6102237B610323FB6107F1F7
:1050EC00100319460F48FCF7C3FD4FF480633B6176
:1050FC0000237B610023BB6107F1100319460948AB
:10510C00FCF7B6FD002200212520FDF7F0F8252044
:10511C00FDF709F900BF2037BD4680BD00380140BE
:10512C000010024000080140FBF742FB0B480C4901
:10513C000C4A002302E0D458C4500433C4188C42E7
:10514C00F9D3094A094C002301E013600432A2424E
:10515C00FBD301F067F8FEF7B7FF704700000020A3
:10516C005C000020207B00085C000020240700204D
:10517C00FEE780B483B000AF00237B6002E07B6865
:10518C0001337B607B68092BF9DD00BF00BF0C3756
:10519C00BD4680BC7047000080B500AF0122802165
:1051AC000C48FCF7E9FE012240210A48FCF7E4FE1A
:1051BC00FFF7DFFF002280210648FCF7DDFEFFF73A
:1051CC00D8FF002240210348FCF7D6FEFFF7D1FFA1
:1051DC0000BF80BD000C014080B500AF00228021D3
:1051EC000A48FCF7C9FEFFF7C4FF0122402107481B
:1051FC00FCF7C2FEFFF7BDFF012280210348FCF73C
:10520C00BBFEFFF7B6FF00BF80BD00BF000C014026
:10521C0080B584B000AF0346FB710023FB6022E035
:10522C0097F90730002B05DA012280211B48FCF787
:10523C00A3FE04E0002280211848FCF79DFEFB79B8
:10524C005B00FB71FFF795FF012240211348FCF72F
:10525C0093FEFFF78EFF002240211048FCF78CFED6
:10526C00FB680133FB60FB68072BD9DD0122802131
:10527C000A48FCF781FEFFF77CFF0122402107481A
:10528C00FCF77AFEFFF775FF002240210348FCF77C
:10529C0073FE00BF1037BD4680BD00BF000C01403F
:1052AC0080B582B000AF0346FB710B46BB71134651
:1052BC007B71FFF771FFFB791846FFF7A9FFBB79EC
:1052CC001846FFF7A5FF7B791846FFF7A1FFFFF7FC
:1052DC0083FF00BF0837BD4680BD80B586B000AFE8
:1052EC00BA607B600346FB730B46BB73FFF754FF3E
:1052FC00FB7B1846FFF78CFFBB7B1846FFF788FF3C
:10530C0000237B6109E0BA687B6913441B7818465B
:10531C00FFF77EFF7B6901337B617A697B689A4278
:10532C00F1D3FFF759FF00BF1837BD4680BD000011
:10533C0080B584B000AF3B4600221A605A609A6078
:10534C00DA60C0233B6001237B600123BB60032335
:10535C00FB603B4619460348FCF78AFC00BF10373C
:10536C00BD4680BD000C014080B582B000AF034645
:10537C00FB71FB791A4600217820FFF791FF00BFE3
:10538C000837BD4680BD80B582B000AF786039600B
:10539C003B687A6840217820FFF79FFF00BF0837F1
:1053AC00BD4680BD80B500AFFFF7C2FF6420FBF7A0
:1053BC00BFFE002000F0D6F92020FFF7D5FF00201B
:1053CC00FFF7D2FFB020FFF7CFFFC820FFF7CCFFCD
:1053DC000020FFF7C9FF1020FFF7C6FF4020FFF7A2
:1053EC00C3FFFF2000F0AAF9A120FFF7BDFFA62004
:1053FC00FFF7BAFFA820FFF7B7FF3F20FFF7B4FF76
:10540C00A420FFF7B1FFD320FFF7AEFF0020FFF77A
:10541C00ABFFD520FFF7A8FFF020FFF7A5FFD920A1
:10542C00FFF7A2FF2220FFF79FFFDA20FFF79CFF78
:10543C001220FFF799FFDB20FFF796FF2020FFF7E4
:10544C0093FF8D20FFF790FF1420FFF78DFF0120B5
:10545C0000F088F9002000F00FF800F025F8054B5B
:10546C0000221A80034B00225A80024B01221A712F
:10547C0000BF80BDE405002080B582B000AF0346BC
:10548C00FB71FB79002B01D1002300E0FF234FF4CB
:10549C0080621946034800F0B7FE00BF0837BD46CE
:1054AC0080BD00BFE401002080B582B000AF0023B6
:1054BC00FB7116E0FB79503BDBB21846FFF754FF4B
:1054CC000020FFF751FF1020FFF74EFFFB79DB01A7
:1054DC00084A134480211846FFF755FFFB79013326
:1054EC00FB71FB79072BE5D900BF00BF0837BD4620
:1054FC0080BD00BFE401002080B483B000AF034640
:10550C00FB710B46BB7113467B7197F90730002B6F
:10551C003DDBBB793F2B3AD87B79012B1AD1FA7939
:10552C00BB79DB08D8B20346DB0113441A4AD35CBF
:10553C005AB2BB7903F00703012101FA03F35BB202
:10554C00134359B2FA790346DB011344C9B2124A28
:10555C00D1541DE0FA79BB79DB08D8B20346DB01E4
:10556C0013440D4AD35C5AB2BB7903F007030121F3
:10557C0001FA03F35BB2DB435BB2134059B2FA7925
:10558C000346DB011344C9B2034AD15400E000BF07
:10559C000C37BD4680BC7047E401002090B589B043
:1055AC0000AF0446384680E80E002346FB73FB7BB5
:1055BC001F2B02D9FB7B7E2B01D9002379E0BB6822
:1055CC00002B05D0BA68FB7B203B13441B7800E012
:1055DC003B78FB75394B1B881A46FB7D1344802B9B
:1055EC0006DC364B5B881A467B781344402B01DD76
:1055FC0000235EE00023FB614DE07A68FB7B203BDF
:10560C00797801FB03F31946FB690B445B001344E7
:10561C001B883B610023BB6136E03A69BB6902FA27
:10562C0003F303F40043002B13D0244B1B88DAB292
:10563C00BB69DBB21344D8B2204B5B88DAB2FB698E
:10564C00DBB21344DBB297F830201946FFF754FF56
:10565C0017E01A4B1B88DAB2BB69DBB21344D8B221
:10566C00164B5B88DAB2FB69DBB21344D9B297F8FC
:10567C003030002B0CBF01230023DBB21A46FFF79E
:10568C003BFFBB690133BB61FB7DBA699A42C4D352
:10569C00FB690133FB617B781A46FB699342ACD3FF
:1056AC00064B1A88FB7D9BB213449AB2034B1A80AB
:1056BC00FB7B18462437BD4690BD00BFE405002097
:1056CC0080B586B002AFF860384680E80E0013E073
:1056DC00FB6818783B7E00933B460ECBFFF75EFFD2
:1056EC0003461A46FB681B789A4202D0FB681B786B
:1056FC0008E0FB680133FB60FB681B78002BE7D1EB
:10570C00FB681B7818461037BD4680BD80B483B04B
:10571C0000AF03460A46FB711346BB71FB799AB284
:10572C00054B1A80BB799AB2034B5A8000BF0C37D9
:10573C00BD4680BC704700BFE405002080B584B036
:10574C0000AF0346FB718123FB73FB7B1846FFF70D
:10575C000BFEFB791846FFF707FE00BF1037BD465E
:10576C0080BD000080B584B000AF0346FB71FB79AF
:10577C00002B05D0AF23FB73084B01225A7104E0B8
:10578C00AE23FB73054B00225A71FB7B1846FFF7C7
:10579C00EBFD00BF1037BD4680BD00BFE405002007
:1057AC0070B50C46064600F057F8214605462046D3
:1057BC00FAF77AFF58B930460021FAF743FFA0B147
:1057CC0020460021FAF73EFF18B14FF07E552846CF
:1057DC0070BD204600F038F80028F8D02046002193
:1057EC00FAF73AFF0028F2D023E0284600F02CF814
:1057FC0080B128460021FAF725FF0028E7D0304673
:10580C0000F022F80028E2D0204600F01DF8002815
:10581C00DDD00EE0304600F017F80028E9D0204625
:10582C0000F012F80028E4D029462846FAF73CFF8D
:10583C0020B900F0F1FC22230360C8E700F0ECFC77
:10584C0021230360C3E700BF20F00040B0F1FF4FFD
:10585C002CBF0020012070472DE9F04F31F000499A
:10586C000C460746804689B00DD180F480084FEA7B
:10587C00480818F5000F15D921463846FAF746FCAA
:10588C0009B0BDE8F08F20F0004ABAF1FF4F0D4689
:10589C000DD9B8F17E5FEFD185F480056D0015F55B
:1058AC00000FE9D84FF07E5009B0BDE8F08FB9F188
:1058BC00FF4FEED80028D34614DBB9F1FF4F00F0B0
:1058CC003A81B9F17E5F00F06181B1F1804F00F057
:1058DC008B81B1F17C5F40F0758109B0BDE8F04F70
:1058EC0000F020BCB9F1974F80F02E81B9F17E5FAA
:1058FC0080F05781B1F1804F00F07681B1F17C5F7F
:10590C0000F0C28200F08CFBBAF1FF4F4FF00006A2
:10591C0000F02581BAF1000F00F05D81BAF17E5FD5
:10592C0000F059814FEAD873013B0293334300F0E6
:10593C007F81B9F19A4F40F28381AE4B9A4540F288
:10594C00E182AD4B9A4500F2E9824FF07E51FAF7B5
:10595C00DBFBAA490746FAF7E1FCA9498146384620
:10596C00FAF7DCFC4FF07A5180463846FAF7D6FC51
:10597C000146A448FAF7C8FB3946FAF7CFFC0146B2
:10598C004FF07C50FAF7C0FB394682463846FAF79E
:10599C00C5FC01465046FAF7C1FC9B49FAF7BEFC20
:1059AC0001464046FAF7B0FB804648464146FAF7B6
:1059BC00ADFB20F47F6727F00F0749463846FAF70E
:1059CC00A3FB01464046FAF79FFB029B013E6FF397
:1059DC000B051E4329468046204614BF4FF07E56C9
:1059EC008A4EFAF791FB3946FAF798FC03462146A2
:1059FC0040461C46FAF792FC01462046FAF786FB15
:105A0C000346294638461F46FAF788FC04463846B2
:105A1C002146FAF77BFB00280546824620F000421F
:105A2C0040F34282B2F1864F00F2C88200F0A782A6
:105A3C00B2F17C5F00F2CA824FF0000845466FF36A
:105A4C000E0A73495046FAF769FC214681465046C6
:105A5C00FAF75AFB01463846FAF756FB6D49FAF746
:105A6C005DFC6D4904465046FAF758FC0146204649
:105A7C00FAF74CFB044648462146FAF747FB4946E1
:105A8C000746FAF741FB01462046FAF73DFB39463B
:105A9C0081463846FAF742FC04466049FAF73EFC68
:105AAC005F49FAF731FB2146FAF738FC5D49FAF702
:105ABC002DFB2146FAF732FC5B49FAF725FB214610
:105ACC00FAF72CFC5949FAF721FB2146FAF726FC88
